AGENCIA,CONTA,NOME,SALDO
000334454PAULO SILVINO                 00100000
000345677AWALMOR CHAGA                 00200000
000365456JOSE DA SILVA                 00300000
000376345RAUL ARAMNDO                  00400000
000389234CARLOS ARAUJO                 00500000
000423434JULIETE CHAGAS                00600000
000437645IVAN SANCHES                  00700000
000465456JOAO DE BARRO SIQUEIRA        00800000
000478945SIVIA NICOLETTI               00900000
000534550ANA MARIA SILVA               01000000
000536545DUDA SANTOS SILVA             01100000
000578454FABIO CARMOS                  01200000
